{
  "contractName": "Patent",
  "abi": [
    {
      "inputs": [],
      "stateMutability": "nonpayable",
      "type": "constructor"
    },
    {
      "inputs": [
        {
          "internalType": "uint256",
          "name": "id",
          "type": "uint256"
        },
        {
          "internalType": "string",
          "name": "_title",
          "type": "string"
        },
        {
          "internalType": "string",
          "name": "_description",
          "type": "string"
        },
        {
          "internalType": "address",
          "name": "owner",
          "type": "address"
        }
      ],
      "name": "registerPatent",
      "outputs": [],
      "stateMutability": "nonpayable",
      "type": "function"
    },
    {
      "inputs": [
        {
          "internalType": "uint256",
          "name": "id",
          "type": "uint256"
        },
        {
          "internalType": "address",
          "name": "_newOwner",
          "type": "address"
        }
      ],
      "name": "transferOwnership",
      "outputs": [],
      "stateMutability": "nonpayable",
      "type": "function"
    },
    {
      "inputs": [
        {
          "internalType": "uint256",
          "name": "id",
          "type": "uint256"
        }
      ],
      "name": "verifyPatent",
      "outputs": [
        {
          "components": [
            {
              "internalType": "uint256",
              "name": "id",
              "type": "uint256"
            },
            {
              "internalType": "string",
              "name": "title",
              "type": "string"
            },
            {
              "internalType": "string",
              "name": "description",
              "type": "string"
            },
            {
              "internalType": "address",
              "name": "owner",
              "type": "address"
            },
            {
              "internalType": "bool",
              "name": "isActive",
              "type": "bool"
            }
          ],
          "internalType": "struct Patent.patent",
          "name": "",
          "type": "tuple"
        }
      ],
      "stateMutability": "view",
      "type": "function",
      "constant": true
    }
  ],
  "bytecode": "0x608060405234801561001057600080fd5b50336000806101000a81548173ffffffffffffffffffffffffffffffffffffffff021916908373ffffffffffffffffffffffffffffffffffffffff160217905550610c35806100606000396000f3fe608060405234801561001057600080fd5b50600436106100415760003560e01c806309f63a531461004657806329507f7314610076578063604a762714610092575b600080fd5b610060600480360381019061005b919061051a565b6100ae565b60405161006d91906106bf565b60405180910390f35b610090600480360381019061008b919061070d565b61027a565b005b6100ac60048036038101906100a79190610882565b610300565b005b6100b6610489565b600160008381526020019081526020016000206040518060a0016040529081600082015481526020016001820180546100ee90610950565b80601f016020809104026020016040519081016040528092919081815260200182805461011a90610950565b80156101675780601f1061013c57610100808354040283529160200191610167565b820191906000526020600020905b81548152906001019060200180831161014a57829003601f168201915b5050505050815260200160028201805461018090610950565b80601f01602080910402602001604051908101604052809291908181526020018280546101ac90610950565b80156101f95780601f106101ce576101008083540402835291602001916101f9565b820191906000526020600020905b8154815290600101906020018083116101dc57829003601f168201915b505050505081526020016003820160009054906101000a900473ffffffffffffffffffffffffffffffffffffffff1673ffffffffffffffffffffffffffffffffffffffff1673ffffffffffffffffffffffffffffffffffffffff1681526020016003820160149054906101000a900460ff1615151515815250509050919050565b6001600083815260200190815260200160002060030160149054906101000a900460ff166102a757600080fd5b806001600084815260200190815260200160002060030160006101000a81548173ffffffffffffffffffffffffffffffffffffffff021916908373ffffffffffffffffffffffffffffffffffffffff1602179055505050565b3373ffffffffffffffffffffffffffffffffffffffff1660008054906101000a900473ffffffffffffffffffffffffffffffffffffffff1673ffffffffffffffffffffffffffffffffffffffff161461035857600080fd5b6001600085815260200190815260200160002060030160149054906101000a900460ff161561038657600080fd5b60006040518060a001604052808681526020018581526020018481526020018373ffffffffffffffffffffffffffffffffffffffff1681526020016001151581525090508060016000836000015181526020019081526020016000206000820151816000015560208201518160010190816104019190610b2d565b5060408201518160020190816104179190610b2d565b5060608201518160030160006101000a81548173ffffffffffffffffffffffffffffffffffffffff021916908373ffffffffffffffffffffffffffffffffffffffff16021790555060808201518160030160146101000a81548160ff0219169083151502179055509050505050505050565b6040518060a00160405280600081526020016060815260200160608152602001600073ffffffffffffffffffffffffffffffffffffffff1681526020016000151581525090565b6000604051905090565b600080fd5b600080fd5b6000819050919050565b6104f7816104e4565b811461050257600080fd5b50565b600081359050610514816104ee565b92915050565b6000602082840312156105305761052f6104da565b5b600061053e84828501610505565b91505092915050565b610550816104e4565b82525050565b600081519050919050565b600082825260208201905092915050565b60005b83811015610590578082015181840152602081019050610575565b60008484015250505050565b6000601f19601f8301169050919050565b60006105b882610556565b6105c28185610561565b93506105d2818560208601610572565b6105db8161059c565b840191505092915050565b600073ffffffffffffffffffffffffffffffffffffffff82169050919050565b6000610611826105e6565b9050919050565b61062181610606565b82525050565b60008115159050919050565b61063c81610627565b82525050565b600060a08301600083015161065a6000860182610547565b506020830151848203602086015261067282826105ad565b9150506040830151848203604086015261068c82826105ad565b91505060608301516106a16060860182610618565b5060808301516106b46080860182610633565b508091505092915050565b600060208201905081810360008301526106d98184610642565b905092915050565b6106ea81610606565b81146106f557600080fd5b50565b600081359050610707816106e1565b92915050565b60008060408385031215610724576107236104da565b5b600061073285828601610505565b9250506020610743858286016106f8565b9150509250929050565b600080fd5b600080fd5b7f4e487b7100000000000000000000000000000000000000000000000000000000600052604160045260246000fd5b61078f8261059c565b810181811067ffffffffffffffff821117156107ae576107ad610757565b5b80604052505050565b60006107c16104d0565b90506107cd8282610786565b919050565b600067ffffffffffffffff8211156107ed576107ec610757565b5b6107f68261059c565b9050602081019050919050565b82818337600083830152505050565b6000610825610820846107d2565b6107b7565b90508281526020810184848401111561084157610840610752565b5b61084c848285610803565b509392505050565b600082601f8301126108695761086861074d565b5b8135610879848260208601610812565b91505092915050565b6000806000806080858703121561089c5761089b6104da565b5b60006108aa87828801610505565b945050602085013567ffffffffffffffff8111156108cb576108ca6104df565b5b6108d787828801610854565b935050604085013567ffffffffffffffff8111156108f8576108f76104df565b5b61090487828801610854565b9250506060610915878288016106f8565b91505092959194509250565b7f4e487b7100000000000000000000000000000000000000000000000000000000600052602260045260246000fd5b6000600282049050600182168061096857607f821691505b60208210810361097b5761097a610921565b5b50919050565b60008190508160005260206000209050919050565b60006020601f8301049050919050565b600082821b905092915050565b6000600883026109e37fffffffffffffffffffffffffffffffffffffffffffffffffffffffffffffffff826109a6565b6109ed86836109a6565b95508019841693508086168417925050509392505050565b6000819050919050565b6000610a2a610a25610a20846104e4565b610a05565b6104e4565b9050919050565b6000819050919050565b610a4483610a0f565b610a58610a5082610a31565b8484546109b3565b825550505050565b600090565b610a6d610a60565b610a78818484610a3b565b505050565b5b81811015610a9c57610a91600082610a65565b600181019050610a7e565b5050565b601f821115610ae157610ab281610981565b610abb84610996565b81016020851015610aca578190505b610ade610ad685610996565b830182610a7d565b50505b505050565b600082821c905092915050565b6000610b0460001984600802610ae6565b1980831691505092915050565b6000610b1d8383610af3565b9150826002028217905092915050565b610b3682610556565b67ffffffffffffffff811115610b4f57610b4e610757565b5b610b598254610950565b610b64828285610aa0565b600060209050601f831160018114610b975760008415610b85578287015190505b610b8f8582610b11565b865550610bf7565b601f198416610ba586610981565b60005b82811015610bcd57848901518255600182019150602085019450602081019050610ba8565b86831015610bea5784890151610be6601f891682610af3565b8355505b6001600288020188555050505b50505050505056fea26469706673582212208ced671755d445a45d3527e5229b99f0296986d0a921b8944ededb56f509477964736f6c63430008130033",
  "immutableReferences": {},
  "source": "// SPDX-License-Identifier: MIT\npragma solidity 0.8.19;\n\ncontract Patent {\n  address admin;\n    struct patent {\n        uint id;\n        string title;\n        string description;\n        address owner;\n        bool isActive;\n    }\n    constructor() {\n     admin=msg.sender;\n    }\n\n    mapping(uint => patent)  patents;\n    \n\n    // Function to register a patent\n    function registerPatent( uint id,string memory _title, string memory _description,address owner) public {\n        require(admin==msg.sender);\n      \n        require(!patents[id].isActive);\n        //record create\n        patent memory new_patent=patent(id,_title,_description,owner,true);\n        //record map\n        patents[new_patent.id]=new_patent;\n    }\n\n    // Function to transfer ownership of a patent\n    function transferOwnership(uint id, address _newOwner) public {\n        require(patents[id].isActive);\n        // require(msg.sender==patents[id].owner);\n        patents[id].owner=_newOwner;\n\n    }\n\n    // Function to verify if a patent exists by patentId\n    function verifyPatent(uint id) public view returns (patent memory) {\n        return (patents[id]);\n\n    }\n\n   \n}\n",
  "sourcePath": "C:\\Users\\manik\\OneDrive\\Desktop\\patent tracking system\\contracts\\patent.sol",
  "compiler": {
    "name": "solc",
    "version": "0.8.19+commit.7dd6d404.Emscripten.clang"
  },
  "schemaVersion": "3.4.16",
  "updatedAt": "2024-09-23T03:27:02.510Z",
  "networkType": "ethereum",
  "devdoc": {
    "kind": "dev",
    "methods": {},
    "version": 1
  },
  "userdoc": {
    "kind": "user",
    "methods": {},
    "version": 1
  }
}